{
  "_format": "hh-sol-artifact-1",
  "contractName": "SoulSign",
  "sourceName": "contracts/SoulSign.sol",
  "abi": [
    {
      "inputs": [],
      "stateMutability": "nonpayable",
      "type": "constructor"
    },
    {
      "anonymous": false,
      "inputs": [
        {
          "indexed": true,
          "internalType": "address",
          "name": "owner",
          "type": "address"
        },
        {
          "indexed": true,
          "internalType": "address",
          "name": "approved",
          "type": "address"
        },
        {
          "indexed": true,
          "internalType": "uint256",
          "name": "tokenId",
          "type": "uint256"
        }
      ],
      "name": "Approval",
      "type": "event"
    },
    {
      "anonymous": false,
      "inputs": [
        {
          "indexed": true,
          "internalType": "address",
          "name": "owner",
          "type": "address"
        },
        {
          "indexed": true,
          "internalType": "address",
          "name": "operator",
          "type": "address"
        },
        {
          "indexed": false,
          "internalType": "bool",
          "name": "approved",
          "type": "bool"
        }
      ],
      "name": "ApprovalForAll",
      "type": "event"
    },
    {
      "anonymous": false,
      "inputs": [
        {
          "indexed": false,
          "internalType": "uint256",
          "name": "_fromTokenId",
          "type": "uint256"
        },
        {
          "indexed": false,
          "internalType": "uint256",
          "name": "_toTokenId",
          "type": "uint256"
        }
      ],
      "name": "BatchMetadataUpdate",
      "type": "event"
    },
    {
      "anonymous": false,
      "inputs": [
        {
          "indexed": true,
          "internalType": "address",
          "name": "user",
          "type": "address"
        },
        {
          "indexed": false,
          "internalType": "uint256",
          "name": "timestamp",
          "type": "uint256"
        }
      ],
      "name": "CheckedIn",
      "type": "event"
    },
    {
      "anonymous": false,
      "inputs": [
        {
          "indexed": true,
          "internalType": "address",
          "name": "user",
          "type": "address"
        },
        {
          "indexed": false,
          "internalType": "string",
          "name": "email",
          "type": "string"
        },
        {
          "indexed": false,
          "internalType": "string",
          "name": "name",
          "type": "string"
        }
      ],
      "name": "EmergencyContactSet",
      "type": "event"
    },
    {
      "anonymous": false,
      "inputs": [
        {
          "indexed": false,
          "internalType": "uint256",
          "name": "_tokenId",
          "type": "uint256"
        }
      ],
      "name": "MetadataUpdate",
      "type": "event"
    },
    {
      "anonymous": false,
      "inputs": [
        {
          "indexed": true,
          "internalType": "address",
          "name": "previousOwner",
          "type": "address"
        },
        {
          "indexed": true,
          "internalType": "address",
          "name": "newOwner",
          "type": "address"
        }
      ],
      "name": "OwnershipTransferred",
      "type": "event"
    },
    {
      "anonymous": false,
      "inputs": [
        {
          "indexed": true,
          "internalType": "address",
          "name": "user",
          "type": "address"
        },
        {
          "indexed": false,
          "internalType": "uint256",
          "name": "tokenId",
          "type": "uint256"
        }
      ],
      "name": "SoulMinted",
      "type": "event"
    },
    {
      "anonymous": false,
      "inputs": [
        {
          "indexed": true,
          "internalType": "address",
          "name": "from",
          "type": "address"
        },
        {
          "indexed": true,
          "internalType": "address",
          "name": "to",
          "type": "address"
        },
        {
          "indexed": true,
          "internalType": "uint256",
          "name": "tokenId",
          "type": "uint256"
        }
      ],
      "name": "Transfer",
      "type": "event"
    },
    {
      "inputs": [
        {
          "internalType": "address",
          "name": "to",
          "type": "address"
        },
        {
          "internalType": "uint256",
          "name": "tokenId",
          "type": "uint256"
        }
      ],
      "name": "approve",
      "outputs": [],
      "stateMutability": "nonpayable",
      "type": "function"
    },
    {
      "inputs": [
        {
          "internalType": "address",
          "name": "owner",
          "type": "address"
        }
      ],
      "name": "balanceOf",
      "outputs": [
        {
          "internalType": "uint256",
          "name": "",
          "type": "uint256"
        }
      ],
      "stateMutability": "view",
      "type": "function"
    },
    {
      "inputs": [],
      "name": "checkIn",
      "outputs": [],
      "stateMutability": "nonpayable",
      "type": "function"
    },
    {
      "inputs": [
        {
          "internalType": "uint256",
          "name": "tokenId",
          "type": "uint256"
        }
      ],
      "name": "getApproved",
      "outputs": [
        {
          "internalType": "address",
          "name": "",
          "type": "address"
        }
      ],
      "stateMutability": "view",
      "type": "function"
    },
    {
      "inputs": [
        {
          "internalType": "address",
          "name": "_user",
          "type": "address"
        }
      ],
      "name": "getEmergencyContact",
      "outputs": [
        {
          "internalType": "string",
          "name": "",
          "type": "string"
        },
        {
          "internalType": "string",
          "name": "",
          "type": "string"
        }
      ],
      "stateMutability": "view",
      "type": "function"
    },
    {
      "inputs": [
        {
          "internalType": "address",
          "name": "_user",
          "type": "address"
        }
      ],
      "name": "getLastCheckIn",
      "outputs": [
        {
          "internalType": "uint256",
          "name": "",
          "type": "uint256"
        }
      ],
      "stateMutability": "view",
      "type": "function"
    },
    {
      "inputs": [],
      "name": "getTotalSouls",
      "outputs": [
        {
          "internalType": "uint256",
          "name": "",
          "type": "uint256"
        }
      ],
      "stateMutability": "view",
      "type": "function"
    },
    {
      "inputs": [
        {
          "internalType": "address",
          "name": "",
          "type": "address"
        }
      ],
      "name": "hasMinted",
      "outputs": [
        {
          "internalType": "bool",
          "name": "",
          "type": "bool"
        }
      ],
      "stateMutability": "view",
      "type": "function"
    },
    {
      "inputs": [
        {
          "internalType": "address",
          "name": "_user",
          "type": "address"
        }
      ],
      "name": "hasSoulNFT",
      "outputs": [
        {
          "internalType": "bool",
          "name": "",
          "type": "bool"
        }
      ],
      "stateMutability": "view",
      "type": "function"
    },
    {
      "inputs": [
        {
          "internalType": "address",
          "name": "owner",
          "type": "address"
        },
        {
          "internalType": "address",
          "name": "operator",
          "type": "address"
        }
      ],
      "name": "isApprovedForAll",
      "outputs": [
        {
          "internalType": "bool",
          "name": "",
          "type": "bool"
        }
      ],
      "stateMutability": "view",
      "type": "function"
    },
    {
      "inputs": [
        {
          "internalType": "address",
          "name": "_user",
          "type": "address"
        }
      ],
      "name": "isRegistered",
      "outputs": [
        {
          "internalType": "bool",
          "name": "",
          "type": "bool"
        }
      ],
      "stateMutability": "view",
      "type": "function"
    },
    {
      "inputs": [],
      "name": "mintFee",
      "outputs": [
        {
          "internalType": "uint256",
          "name": "",
          "type": "uint256"
        }
      ],
      "stateMutability": "view",
      "type": "function"
    },
    {
      "inputs": [],
      "name": "mintSoulNFT",
      "outputs": [],
      "stateMutability": "payable",
      "type": "function"
    },
    {
      "inputs": [],
      "name": "name",
      "outputs": [
        {
          "internalType": "string",
          "name": "",
          "type": "string"
        }
      ],
      "stateMutability": "view",
      "type": "function"
    },
    {
      "inputs": [],
      "name": "owner",
      "outputs": [
        {
          "internalType": "address",
          "name": "",
          "type": "address"
        }
      ],
      "stateMutability": "view",
      "type": "function"
    },
    {
      "inputs": [
        {
          "internalType": "uint256",
          "name": "tokenId",
          "type": "uint256"
        }
      ],
      "name": "ownerOf",
      "outputs": [
        {
          "internalType": "address",
          "name": "",
          "type": "address"
        }
      ],
      "stateMutability": "view",
      "type": "function"
    },
    {
      "inputs": [],
      "name": "renounceOwnership",
      "outputs": [],
      "stateMutability": "nonpayable",
      "type": "function"
    },
    {
      "inputs": [
        {
          "internalType": "address",
          "name": "from",
          "type": "address"
        },
        {
          "internalType": "address",
          "name": "to",
          "type": "address"
        },
        {
          "internalType": "uint256",
          "name": "tokenId",
          "type": "uint256"
        }
      ],
      "name": "safeTransferFrom",
      "outputs": [],
      "stateMutability": "nonpayable",
      "type": "function"
    },
    {
      "inputs": [
        {
          "internalType": "address",
          "name": "from",
          "type": "address"
        },
        {
          "internalType": "address",
          "name": "to",
          "type": "address"
        },
        {
          "internalType": "uint256",
          "name": "tokenId",
          "type": "uint256"
        },
        {
          "internalType": "bytes",
          "name": "data",
          "type": "bytes"
        }
      ],
      "name": "safeTransferFrom",
      "outputs": [],
      "stateMutability": "nonpayable",
      "type": "function"
    },
    {
      "inputs": [
        {
          "internalType": "address",
          "name": "operator",
          "type": "address"
        },
        {
          "internalType": "bool",
          "name": "approved",
          "type": "bool"
        }
      ],
      "name": "setApprovalForAll",
      "outputs": [],
      "stateMutability": "nonpayable",
      "type": "function"
    },
    {
      "inputs": [
        {
          "internalType": "string",
          "name": "_name",
          "type": "string"
        },
        {
          "internalType": "string",
          "name": "_email",
          "type": "string"
        }
      ],
      "name": "setEmergencyContact",
      "outputs": [],
      "stateMutability": "nonpayable",
      "type": "function"
    },
    {
      "inputs": [
        {
          "internalType": "uint256",
          "name": "_fee",
          "type": "uint256"
        }
      ],
      "name": "setMintFee",
      "outputs": [],
      "stateMutability": "nonpayable",
      "type": "function"
    },
    {
      "inputs": [
        {
          "internalType": "bytes4",
          "name": "interfaceId",
          "type": "bytes4"
        }
      ],
      "name": "supportsInterface",
      "outputs": [
        {
          "internalType": "bool",
          "name": "",
          "type": "bool"
        }
      ],
      "stateMutability": "view",
      "type": "function"
    },
    {
      "inputs": [],
      "name": "symbol",
      "outputs": [
        {
          "internalType": "string",
          "name": "",
          "type": "string"
        }
      ],
      "stateMutability": "view",
      "type": "function"
    },
    {
      "inputs": [
        {
          "internalType": "uint256",
          "name": "",
          "type": "uint256"
        }
      ],
      "name": "tokenHolders",
      "outputs": [
        {
          "internalType": "address",
          "name": "",
          "type": "address"
        }
      ],
      "stateMutability": "view",
      "type": "function"
    },
    {
      "inputs": [
        {
          "internalType": "uint256",
          "name": "tokenId",
          "type": "uint256"
        }
      ],
      "name": "tokenURI",
      "outputs": [
        {
          "internalType": "string",
          "name": "",
          "type": "string"
        }
      ],
      "stateMutability": "view",
      "type": "function"
    },
    {
      "inputs": [
        {
          "internalType": "address",
          "name": "from",
          "type": "address"
        },
        {
          "internalType": "address",
          "name": "to",
          "type": "address"
        },
        {
          "internalType": "uint256",
          "name": "tokenId",
          "type": "uint256"
        }
      ],
      "name": "transferFrom",
      "outputs": [],
      "stateMutability": "nonpayable",
      "type": "function"
    },
    {
      "inputs": [
        {
          "internalType": "address",
          "name": "newOwner",
          "type": "address"
        }
      ],
      "name": "transferOwnership",
      "outputs": [],
      "stateMutability": "nonpayable",
      "type": "function"
    },
    {
      "inputs": [
        {
          "internalType": "address",
          "name": "",
          "type": "address"
        }
      ],
      "name": "users",
      "outputs": [
        {
          "internalType": "uint256",
          "name": "lastCheckIn",
          "type": "uint256"
        },
        {
          "components": [
            {
              "internalType": "string",
              "name": "name",
              "type": "string"
            },
            {
              "internalType": "string",
              "name": "email",
              "type": "string"
            }
          ],
          "internalType": "struct SoulSign.EmergencyContact",
          "name": "emergencyContact",
          "type": "tuple"
        },
        {
          "internalType": "bool",
          "name": "registered",
          "type": "bool"
        }
      ],
      "stateMutability": "view",
      "type": "function"
    },
    {
      "inputs": [],
      "name": "withdraw",
      "outputs": [],
      "stateMutability": "nonpayable",
      "type": "function"
    }
  ],
  "bytecode": "0x60806040526000600c553480156200001657600080fd5b506040518060400160405280600881526020017f536f756c5369676e0000000000000000000000000000000000000000000000008152506040518060400160405280600481526020017f534f554c0000000000000000000000000000000000000000000000000000000081525081600090816200009491906200041f565b508060019081620000a691906200041f565b505050620000c9620000bd620000d760201b60201c565b620000df60201b60201c565b600160088190555062000506565b600033905090565b6000600760009054906101000a900473ffffffffffffffffffffffffffffffffffffffff16905081600760006101000a81548173ffffffffffffffffffffffffffffffffffffffff021916908373ffffffffffffffffffffffffffffffffffffffff1602179055508173ffffffffffffffffffffffffffffffffffffffff168173ffffffffffffffffffffffffffffffffffffffff167f8be0079c531659141344cd1fd0a4f28419497f9722a3daafe3b4186f6b6457e060405160405180910390a35050565b600081519050919050565b7f4e487b7100000000000000000000000000000000000000000000000000000000600052604160045260246000fd5b7f4e487b7100000000000000000000000000000000000000000000000000000000600052602260045260246000fd5b600060028204905060018216806200022757607f821691505b6020821081036200023d576200023c620001df565b5b50919050565b60008190508160005260206000209050919050565b60006020601f8301049050919050565b600082821b905092915050565b600060088302620002a77fffffffffffffffffffffffffffffffffffffffffffffffffffffffffffffffff8262000268565b620002b3868362000268565b95508019841693508086168417925050509392505050565b6000819050919050565b6000819050919050565b600062000300620002fa620002f484620002cb565b620002d5565b620002cb565b9050919050565b6000819050919050565b6200031c83620002df565b620003346200032b8262000307565b84845462000275565b825550505050565b600090565b6200034b6200033c565b6200035881848462000311565b505050565b5b8181101562000380576200037460008262000341565b6001810190506200035e565b5050565b601f821115620003cf57620003998162000243565b620003a48462000258565b81016020851015620003b4578190505b620003cc620003c38562000258565b8301826200035d565b50505b505050565b600082821c905092915050565b6000620003f460001984600802620003d4565b1980831691505092915050565b60006200040f8383620003e1565b9150826002028217905092915050565b6200042a82620001a5565b67ffffffffffffffff811115620004465762000445620001b0565b5b6200045282546200020e565b6200045f82828562000384565b600060209050601f83116001811462000497576000841562000482578287015190505b6200048e858262000401565b865550620004fe565b601f198416620004a78662000243565b60005b82811015620004d157848901518255600182019150602085019450602081019050620004aa565b86831015620004f15784890151620004ed601f891682620003e1565b8355505b6001600288020188555050505b505050505050565b61401680620005166000396000f3fe6080604052600436106101cd5760003560e01c80637da8902f116100f7578063b88d4fde11610095578063e985e9c511610064578063e985e9c514610690578063ebb988bf146106cd578063eddd0d9c1461070a578063f2fde38b14610733576101cd565b8063b88d4fde146105c2578063c3c5a547146105eb578063c87b56dd14610628578063ddf5d53f14610665576101cd565b806395d89b41116100d157806395d89b4114610525578063a22cb46514610550578063a87430ba14610579578063b0b95960146105b8576101cd565b80637da8902f146104945780638da5cb5b146104bd578063923108d9146104e8576101cd565b80632c81df051161016f57806342842e0e1161013e57806342842e0e146103da5780636352211e1461040357806370a0823114610440578063715018a61461047d576101cd565b80632c81df051461030b57806338e21cce146103495780633ccfd60b1461038657806340195c851461039d576101cd565b8063095ea7b3116101ab578063095ea7b31461027757806313966db5146102a0578063183ff085146102cb57806323b872dd146102e2576101cd565b806301ffc9a7146101d257806306fdde031461020f578063081812fc1461023a575b600080fd5b3480156101de57600080fd5b506101f960048036038101906101f49190612aef565b61075c565b6040516102069190612b37565b60405180910390f35b34801561021b57600080fd5b5061022461076e565b6040516102319190612be2565b60405180910390f35b34801561024657600080fd5b50610261600480360381019061025c9190612c3a565b610800565b60405161026e9190612ca8565b60405180910390f35b34801561028357600080fd5b5061029e60048036038101906102999190612cef565b610846565b005b3480156102ac57600080fd5b506102b561095d565b6040516102c29190612d3e565b60405180910390f35b3480156102d757600080fd5b506102e0610963565b005b3480156102ee57600080fd5b5061030960048036038101906103049190612d59565b610a86565b005b34801561031757600080fd5b50610332600480360381019061032d9190612dac565b610ae6565b604051610340929190612dd9565b60405180910390f35b34801561035557600080fd5b50610370600480360381019061036b9190612dac565b610c94565b60405161037d9190612b37565b60405180910390f35b34801561039257600080fd5b5061039b610cb4565b005b3480156103a957600080fd5b506103c460048036038101906103bf9190612dac565b610d0c565b6040516103d19190612d3e565b60405180910390f35b3480156103e657600080fd5b5061040160048036038101906103fc9190612d59565b610d58565b005b34801561040f57600080fd5b5061042a60048036038101906104259190612c3a565b610d78565b6040516104379190612ca8565b60405180910390f35b34801561044c57600080fd5b5061046760048036038101906104629190612dac565b610dfe565b6040516104749190612d3e565b60405180910390f35b34801561048957600080fd5b50610492610eb5565b005b3480156104a057600080fd5b506104bb60048036038101906104b69190612e75565b610ec9565b005b3480156104c957600080fd5b506104d2611103565b6040516104df9190612ca8565b60405180910390f35b3480156104f457600080fd5b5061050f600480360381019061050a9190612c3a565b61112d565b60405161051c9190612ca8565b60405180910390f35b34801561053157600080fd5b5061053a611160565b6040516105479190612be2565b60405180910390f35b34801561055c57600080fd5b5061057760048036038101906105729190612f22565b6111f2565b005b34801561058557600080fd5b506105a0600480360381019061059b9190612dac565b611208565b6040516105af93929190612ff0565b60405180910390f35b6105c061136d565b005b3480156105ce57600080fd5b506105e960048036038101906105e4919061315e565b611652565b005b3480156105f757600080fd5b50610612600480360381019061060d9190612dac565b6116b4565b60405161061f9190612b37565b60405180910390f35b34801561063457600080fd5b5061064f600480360381019061064a9190612c3a565b61170d565b60405161065c9190612be2565b60405180910390f35b34801561067157600080fd5b5061067a61171f565b6040516106879190612d3e565b60405180910390f35b34801561069c57600080fd5b506106b760048036038101906106b291906131e1565b611735565b6040516106c49190612b37565b60405180910390f35b3480156106d957600080fd5b506106f460048036038101906106ef9190612dac565b6117c9565b6040516107019190612b37565b60405180910390f35b34801561071657600080fd5b50610731600480360381019061072c9190612c3a565b61181f565b005b34801561073f57600080fd5b5061075a60048036038101906107559190612dac565b611831565b005b6000610767826118b4565b9050919050565b60606000805461077d90613250565b80601f01602080910402602001604051908101604052809291908181526020018280546107a990613250565b80156107f65780601f106107cb576101008083540402835291602001916107f6565b820191906000526020600020905b8154815290600101906020018083116107d957829003601f168201915b5050505050905090565b600061080b82611915565b6004600083815260200190815260200160002060009054906101000a900473ffffffffffffffffffffffffffffffffffffffff169050919050565b600061085182610d78565b90508073ffffffffffffffffffffffffffffffffffffffff168373ffffffffffffffffffffffffffffffffffffffff16036108c1576040517f08c379a00000000000000000000000000000000000000000000000000000000081526004016108b8906132f3565b60405180910390fd5b8073ffffffffffffffffffffffffffffffffffffffff166108e0611960565b73ffffffffffffffffffffffffffffffffffffffff16148061090f575061090e81610909611960565b611735565b5b61094e576040517f08c379a000000000000000000000000000000000000000000000000000000000815260040161094590613385565b60405180910390fd5b6109588383611968565b505050565b600c5481565b600b60003373ffffffffffffffffffffffffffffffffffffffff1673ffffffffffffffffffffffffffffffffffffffff16815260200190815260200160002060009054906101000a900460ff166109ef576040517f08c379a00000000000000000000000000000000000000000000000000000000081526004016109e6906133f1565b60405180910390fd5b42600960003373ffffffffffffffffffffffffffffffffffffffff1673ffffffffffffffffffffffffffffffffffffffff168152602001908152602001600020600001819055503373ffffffffffffffffffffffffffffffffffffffff167fdddb6e14f7f2101397a6526aab95e964de7f1f44ed06aa47a1c9a0e6b992445642604051610a7c9190612d3e565b60405180910390a2565b610a97610a91611960565b82611a21565b610ad6576040517f08c379a0000000000000000000000000000000000000000000000000000000008152600401610acd90613483565b60405180910390fd5b610ae1838383611ab6565b505050565b606080600960008473ffffffffffffffffffffffffffffffffffffffff1673ffffffffffffffffffffffffffffffffffffffff168152602001908152602001600020600101600001600960008573ffffffffffffffffffffffffffffffffffffffff1673ffffffffffffffffffffffffffffffffffffffff168152602001908152602001600020600101600101818054610b7f90613250565b80601f0160208091040260200160405190810160405280929190818152602001828054610bab90613250565b8015610bf85780601f10610bcd57610100808354040283529160200191610bf8565b820191906000526020600020905b815481529060010190602001808311610bdb57829003601f168201915b50505050509150808054610c0b90613250565b80601f0160208091040260200160405190810160405280929190818152602001828054610c3790613250565b8015610c845780601f10610c5957610100808354040283529160200191610c84565b820191906000526020600020905b815481529060010190602001808311610c6757829003601f168201915b5050505050905091509150915091565b600b6020528060005260406000206000915054906101000a900460ff1681565b610cbc611daf565b610cc4611103565b73ffffffffffffffffffffffffffffffffffffffff166108fc479081150290604051600060405180830381858888f19350505050158015610d09573d6000803e3d6000fd5b50565b6000600960008373ffffffffffffffffffffffffffffffffffffffff1673ffffffffffffffffffffffffffffffffffffffff168152602001908152602001600020600001549050919050565b610d7383838360405180602001604052806000815250611652565b505050565b600080610d8483611e2d565b9050600073ffffffffffffffffffffffffffffffffffffffff168173ffffffffffffffffffffffffffffffffffffffff1603610df5576040517f08c379a0000000000000000000000000000000000000000000000000000000008152600401610dec906134ef565b60405180910390fd5b80915050919050565b60008073ffffffffffffffffffffffffffffffffffffffff168273ffffffffffffffffffffffffffffffffffffffff1603610e6e576040517f08c379a0000000000000000000000000000000000000000000000000000000008152600401610e6590613581565b60405180910390fd5b600360008373ffffffffffffffffffffffffffffffffffffffff1673ffffffffffffffffffffffffffffffffffffffff168152602001908152602001600020549050919050565b610ebd611daf565b610ec76000611e6a565b565b600b60003373ffffffffffffffffffffffffffffffffffffffff1673ffffffffffffffffffffffffffffffffffffffff16815260200190815260200160002060009054906101000a900460ff16610f55576040517f08c379a0000000000000000000000000000000000000000000000000000000008152600401610f4c906133f1565b60405180910390fd5b60008282905011610f9b576040517f08c379a0000000000000000000000000000000000000000000000000000000008152600401610f92906135ed565b60405180910390fd5b604051806040016040528085858080601f016020809104026020016040519081016040528093929190818152602001838380828437600081840152601f19601f82011690508083019250505050505050815260200183838080601f016020809104026020016040519081016040528093929190818152602001838380828437600081840152601f19601f82011690508083019250505050505050815250600960003373ffffffffffffffffffffffffffffffffffffffff1673ffffffffffffffffffffffffffffffffffffffff168152602001908152602001600020600101600082015181600001908161108f91906137b9565b5060208201518160010190816110a591906137b9565b509050503373ffffffffffffffffffffffffffffffffffffffff167f49fd73d3d7a0d0ad8facc9cbc1a0b2a70696895f29290ded7fde3724472db088838387876040516110f594939291906138b8565b60405180910390a250505050565b6000600760009054906101000a900473ffffffffffffffffffffffffffffffffffffffff16905090565b600a6020528060005260406000206000915054906101000a900473ffffffffffffffffffffffffffffffffffffffff1681565b60606001805461116f90613250565b80601f016020809104026020016040519081016040528092919081815260200182805461119b90613250565b80156111e85780601f106111bd576101008083540402835291602001916111e8565b820191906000526020600020905b8154815290600101906020018083116111cb57829003601f168201915b5050505050905090565b6112046111fd611960565b8383611f30565b5050565b60096020528060005260406000206000915090508060000154908060010160405180604001604052908160008201805461124190613250565b80601f016020809104026020016040519081016040528092919081815260200182805461126d90613250565b80156112ba5780601f1061128f576101008083540402835291602001916112ba565b820191906000526020600020905b81548152906001019060200180831161129d57829003601f168201915b505050505081526020016001820180546112d390613250565b80601f01602080910402602001604051908101604052809291908181526020018280546112ff90613250565b801561134c5780601f106113215761010080835404028352916020019161134c565b820191906000526020600020905b81548152906001019060200180831161132f57829003601f168201915b505050505081525050908060030160009054906101000a900460ff16905083565b600b60003373ffffffffffffffffffffffffffffffffffffffff1673ffffffffffffffffffffffffffffffffffffffff16815260200190815260200160002060009054906101000a900460ff16156113fa576040517f08c379a00000000000000000000000000000000000000000000000000000000081526004016113f19061393f565b60405180910390fd5b600c5434101561143f576040517f08c379a0000000000000000000000000000000000000000000000000000000008152600401611436906139ab565b60405180910390fd5b600060086000815480929190611454906139fa565b919050559050611464338261209c565b6001600b60003373ffffffffffffffffffffffffffffffffffffffff1673ffffffffffffffffffffffffffffffffffffffff16815260200190815260200160002060006101000a81548160ff0219169083151502179055506040518060600160405280428152602001604051806040016040528060405180602001604052806000815250815260200160405180602001604052806000815250815250815260200160011515815250600960003373ffffffffffffffffffffffffffffffffffffffff1673ffffffffffffffffffffffffffffffffffffffff16815260200190815260200160002060008201518160000155602082015181600101600082015181600001908161157391906137b9565b50602082015181600101908161158991906137b9565b50505060408201518160030160006101000a81548160ff02191690831515021790555090505033600a600083815260200190815260200160002060006101000a81548173ffffffffffffffffffffffffffffffffffffffff021916908373ffffffffffffffffffffffffffffffffffffffff1602179055503373ffffffffffffffffffffffffffffffffffffffff167f43f6ba77f4d9c6eb80b6a26c5ae5ed09a83c0c5c518cb74e883c3862a1bfed4a826040516116479190612d3e565b60405180910390a250565b61166361165d611960565b83611a21565b6116a2576040517f08c379a000000000000000000000000000000000000000000000000000000000815260040161169990613483565b60405180910390fd5b6116ae848484846120ba565b50505050565b6000600960008373ffffffffffffffffffffffffffffffffffffffff1673ffffffffffffffffffffffffffffffffffffffff16815260200190815260200160002060030160009054906101000a900460ff169050919050565b606061171882612116565b9050919050565b600060016008546117309190613a42565b905090565b6000600560008473ffffffffffffffffffffffffffffffffffffffff1673ffffffffffffffffffffffffffffffffffffffff16815260200190815260200160002060008373ffffffffffffffffffffffffffffffffffffffff1673ffffffffffffffffffffffffffffffffffffffff16815260200190815260200160002060009054906101000a900460ff16905092915050565b6000600b60008373ffffffffffffffffffffffffffffffffffffffff1673ffffffffffffffffffffffffffffffffffffffff16815260200190815260200160002060009054906101000a900460ff169050919050565b611827611daf565b80600c8190555050565b611839611daf565b600073ffffffffffffffffffffffffffffffffffffffff168173ffffffffffffffffffffffffffffffffffffffff16036118a8576040517f08c379a000000000000000000000000000000000000000000000000000000000815260040161189f90613ae8565b60405180910390fd5b6118b181611e6a565b50565b6000634906490660e01b7bffffffffffffffffffffffffffffffffffffffffffffffffffffffff1916827bffffffffffffffffffffffffffffffffffffffffffffffffffffffff1916148061190e575061190d82612228565b5b9050919050565b61191e8161230a565b61195d576040517f08c379a0000000000000000000000000000000000000000000000000000000008152600401611954906134ef565b60405180910390fd5b50565b600033905090565b816004600083815260200190815260200160002060006101000a81548173ffffffffffffffffffffffffffffffffffffffff021916908373ffffffffffffffffffffffffffffffffffffffff160217905550808273ffffffffffffffffffffffffffffffffffffffff166119db83610d78565b73ffffffffffffffffffffffffffffffffffffffff167f8c5be1e5ebec7d5bd14f71427d1e84f3dd0314c0f7b2291e5b200ac8c7c3b92560405160405180910390a45050565b600080611a2d83610d78565b90508073ffffffffffffffffffffffffffffffffffffffff168473ffffffffffffffffffffffffffffffffffffffff161480611a6f5750611a6e8185611735565b5b80611aad57508373ffffffffffffffffffffffffffffffffffffffff16611a9584610800565b73ffffffffffffffffffffffffffffffffffffffff16145b91505092915050565b8273ffffffffffffffffffffffffffffffffffffffff16611ad682610d78565b73ffffffffffffffffffffffffffffffffffffffff1614611b2c576040517f08c379a0000000000000000000000000000000000000000000000000000000008152600401611b2390613b7a565b60405180910390fd5b600073ffffffffffffffffffffffffffffffffffffffff168273ffffffffffffffffffffffffffffffffffffffff1603611b9b576040517f08c379a0000000000000000000000000000000000000000000000000000000008152600401611b9290613c0c565b60405180910390fd5b611ba8838383600161234b565b8273ffffffffffffffffffffffffffffffffffffffff16611bc882610d78565b73ffffffffffffffffffffffffffffffffffffffff1614611c1e576040517f08c379a0000000000000000000000000000000000000000000000000000000008152600401611c1590613b7a565b60405180910390fd5b6004600082815260200190815260200160002060006101000a81549073ffffffffffffffffffffffffffffffffffffffff02191690556001600360008573ffffffffffffffffffffffffffffffffffffffff1673ffffffffffffffffffffffffffffffffffffffff168152602001908152602001600020600082825403925050819055506001600360008473ffffffffffffffffffffffffffffffffffffffff1673ffffffffffffffffffffffffffffffffffffffff16815260200190815260200160002060008282540192505081905550816002600083815260200190815260200160002060006101000a81548173ffffffffffffffffffffffffffffffffffffffff021916908373ffffffffffffffffffffffffffffffffffffffff160217905550808273ffffffffffffffffffffffffffffffffffffffff168473ffffffffffffffffffffffffffffffffffffffff167fddf252ad1be2c89b69c2b068fc378daa952ba7f163c4a11628f55a4df523b3ef60405160405180910390a4611daa8383836001612351565b505050565b611db7611960565b73ffffffffffffffffffffffffffffffffffffffff16611dd5611103565b73ffffffffffffffffffffffffffffffffffffffff1614611e2b576040517f08c379a0000000000000000000000000000000000000000000000000000000008152600401611e2290613c78565b60405180910390fd5b565b60006002600083815260200190815260200160002060009054906101000a900473ffffffffffffffffffffffffffffffffffffffff169050919050565b6000600760009054906101000a900473ffffffffffffffffffffffffffffffffffffffff16905081600760006101000a81548173ffffffffffffffffffffffffffffffffffffffff021916908373ffffffffffffffffffffffffffffffffffffffff1602179055508173ffffffffffffffffffffffffffffffffffffffff168173ffffffffffffffffffffffffffffffffffffffff167f8be0079c531659141344cd1fd0a4f28419497f9722a3daafe3b4186f6b6457e060405160405180910390a35050565b8173ffffffffffffffffffffffffffffffffffffffff168373ffffffffffffffffffffffffffffffffffffffff1603611f9e576040517f08c379a0000000000000000000000000000000000000000000000000000000008152600401611f9590613ce4565b60405180910390fd5b80600560008573ffffffffffffffffffffffffffffffffffffffff1673ffffffffffffffffffffffffffffffffffffffff16815260200190815260200160002060008473ffffffffffffffffffffffffffffffffffffffff1673ffffffffffffffffffffffffffffffffffffffff16815260200190815260200160002060006101000a81548160ff0219169083151502179055508173ffffffffffffffffffffffffffffffffffffffff168373ffffffffffffffffffffffffffffffffffffffff167f17307eab39ab6107e8899845ad3d59bd9653f200f220920489ca2b5937696c318360405161208f9190612b37565b60405180910390a3505050565b6120b6828260405180602001604052806000815250612357565b5050565b6120c5848484611ab6565b6120d1848484846123b2565b612110576040517f08c379a000000000000000000000000000000000000000000000000000000000815260040161210790613d76565b60405180910390fd5b50505050565b606061212182611915565b600060066000848152602001908152602001600020805461214190613250565b80601f016020809104026020016040519081016040528092919081815260200182805461216d90613250565b80156121ba5780601f1061218f576101008083540402835291602001916121ba565b820191906000526020600020905b81548152906001019060200180831161219d57829003601f168201915b5050505050905060006121cb612539565b905060008151036121e0578192505050612223565b6000825111156122155780826040516020016121fd929190613dd2565b60405160208183030381529060405292505050612223565b61221e84612550565b925050505b919050565b60007f80ac58cd000000000000000000000000000000000000000000000000000000007bffffffffffffffffffffffffffffffffffffffffffffffffffffffff1916827bffffffffffffffffffffffffffffffffffffffffffffffffffffffff191614806122f357507f5b5e139f000000000000000000000000000000000000000000000000000000007bffffffffffffffffffffffffffffffffffffffffffffffffffffffff1916827bffffffffffffffffffffffffffffffffffffffffffffffffffffffff1916145b806123035750612302826125b8565b5b9050919050565b60008073ffffffffffffffffffffffffffffffffffffffff1661232c83611e2d565b73ffffffffffffffffffffffffffffffffffffffff1614159050919050565b50505050565b50505050565b6123618383612622565b61236e60008484846123b2565b6123ad576040517f08c379a00000000000000000000000000000000000000000000000000000000081526004016123a490613d76565b60405180910390fd5b505050565b60006123d38473ffffffffffffffffffffffffffffffffffffffff1661283f565b1561252c578373ffffffffffffffffffffffffffffffffffffffff1663150b7a026123fc611960565b8786866040518563ffffffff1660e01b815260040161241e9493929190613e4b565b6020604051808303816000875af192505050801561245a57506040513d601f19601f820116820180604052508101906124579190613eac565b60015b6124dc573d806000811461248a576040519150601f19603f3d011682016040523d82523d6000602084013e61248f565b606091505b5060008151036124d4576040517f08c379a00000000000000000000000000000000000000000000000000000000081526004016124cb90613d76565b60405180910390fd5b805181602001fd5b63150b7a0260e01b7bffffffffffffffffffffffffffffffffffffffffffffffffffffffff1916817bffffffffffffffffffffffffffffffffffffffffffffffffffffffff191614915050612531565b600190505b949350505050565b606060405180602001604052806000815250905090565b606061255b82611915565b6000612565612539565b9050600081511161258557604051806020016040528060008152506125b0565b8061258f84612862565b6040516020016125a0929190613dd2565b6040516020818303038152906040525b915050919050565b60007f01ffc9a7000000000000000000000000000000000000000000000000000000007bffffffffffffffffffffffffffffffffffffffffffffffffffffffff1916827bffffffffffffffffffffffffffffffffffffffffffffffffffffffff1916149050919050565b600073ffffffffffffffffffffffffffffffffffffffff168273ffffffffffffffffffffffffffffffffffffffff1603612691576040517f08c379a000000000000000000000000000000000000000000000000000000000815260040161268890613f25565b60405180910390fd5b61269a8161230a565b156126da576040517f08c379a00000000000000000000000000000000000000000000000000000000081526004016126d190613f91565b60405180910390fd5b6126e860008383600161234b565b6126f18161230a565b15612731576040517f08c379a000000000000000000000000000000000000000000000000000000000815260040161272890613f91565b60405180910390fd5b6001600360008473ffffffffffffffffffffffffffffffffffffffff1673ffffffffffffffffffffffffffffffffffffffff16815260200190815260200160002060008282540192505081905550816002600083815260200190815260200160002060006101000a81548173ffffffffffffffffffffffffffffffffffffffff021916908373ffffffffffffffffffffffffffffffffffffffff160217905550808273ffffffffffffffffffffffffffffffffffffffff16600073ffffffffffffffffffffffffffffffffffffffff167fddf252ad1be2c89b69c2b068fc378daa952ba7f163c4a11628f55a4df523b3ef60405160405180910390a461283b600083836001612351565b5050565b6000808273ffffffffffffffffffffffffffffffffffffffff163b119050919050565b60606000600161287184612930565b01905060008167ffffffffffffffff8111156128905761288f613033565b5b6040519080825280601f01601f1916602001820160405280156128c25781602001600182028036833780820191505090505b509050600082602001820190505b600115612925578080600190039150507f3031323334353637383961626364656600000000000000000000000000000000600a86061a8153600a858161291957612918613fb1565b5b049450600085036128d0575b819350505050919050565b600080600090507a184f03e93ff9f4daa797ed6e38ed64bf6a1f010000000000000000831061298e577a184f03e93ff9f4daa797ed6e38ed64bf6a1f010000000000000000838161298457612983613fb1565b5b0492506040810190505b6d04ee2d6d415b85acef810000000083106129cb576d04ee2d6d415b85acef810000000083816129c1576129c0613fb1565b5b0492506020810190505b662386f26fc1000083106129fa57662386f26fc1000083816129f0576129ef613fb1565b5b0492506010810190505b6305f5e1008310612a23576305f5e1008381612a1957612a18613fb1565b5b0492506008810190505b6127108310612a48576127108381612a3e57612a3d613fb1565b5b0492506004810190505b60648310612a6b5760648381612a6157612a60613fb1565b5b0492506002810190505b600a8310612a7a576001810190505b80915050919050565b6000604051905090565b600080fd5b600080fd5b60007fffffffff0000000000000000000000000000000000000000000000000000000082169050919050565b612acc81612a97565b8114612ad757600080fd5b50565b600081359050612ae981612ac3565b92915050565b600060208284031215612b0557612b04612a8d565b5b6000612b1384828501612ada565b91505092915050565b60008115159050919050565b612b3181612b1c565b82525050565b6000602082019050612b4c6000830184612b28565b92915050565b600081519050919050565b600082825260208201905092915050565b60005b83811015612b8c578082015181840152602081019050612b71565b60008484015250505050565b6000601f19601f8301169050919050565b6000612bb482612b52565b612bbe8185612b5d565b9350612bce818560208601612b6e565b612bd781612b98565b840191505092915050565b60006020820190508181036000830152612bfc8184612ba9565b905092915050565b6000819050919050565b612c1781612c04565b8114612c2257600080fd5b50565b600081359050612c3481612c0e565b92915050565b600060208284031215612c5057612c4f612a8d565b5b6000612c5e84828501612c25565b91505092915050565b600073ffffffffffffffffffffffffffffffffffffffff82169050919050565b6000612c9282612c67565b9050919050565b612ca281612c87565b82525050565b6000602082019050612cbd6000830184612c99565b92915050565b612ccc81612c87565b8114612cd757600080fd5b50565b600081359050612ce981612cc3565b92915050565b60008060408385031215612d0657612d05612a8d565b5b6000612d1485828601612cda565b9250506020612d2585828601612c25565b9150509250929050565b612d3881612c04565b82525050565b6000602082019050612d536000830184612d2f565b92915050565b600080600060608486031215612d7257612d71612a8d565b5b6000612d8086828701612cda565b9350506020612d9186828701612cda565b9250506040612da286828701612c25565b9150509250925092565b600060208284031215612dc257612dc1612a8d565b5b6000612dd084828501612cda565b91505092915050565b60006040820190508181036000830152612df38185612ba9565b90508181036020830152612e078184612ba9565b90509392505050565b600080fd5b600080fd5b600080fd5b60008083601f840112612e3557612e34612e10565b5b8235905067ffffffffffffffff811115612e5257612e51612e15565b5b602083019150836001820283011115612e6e57612e6d612e1a565b5b9250929050565b60008060008060408587031215612e8f57612e8e612a8d565b5b600085013567ffffffffffffffff811115612ead57612eac612a92565b5b612eb987828801612e1f565b9450945050602085013567ffffffffffffffff811115612edc57612edb612a92565b5b612ee887828801612e1f565b925092505092959194509250565b612eff81612b1c565b8114612f0a57600080fd5b50565b600081359050612f1c81612ef6565b92915050565b60008060408385031215612f3957612f38612a8d565b5b6000612f4785828601612cda565b9250506020612f5885828601612f0d565b9150509250929050565b600082825260208201905092915050565b6000612f7e82612b52565b612f888185612f62565b9350612f98818560208601612b6e565b612fa181612b98565b840191505092915050565b60006040830160008301518482036000860152612fc98282612f73565b91505060208301518482036020860152612fe38282612f73565b9150508091505092915050565b60006060820190506130056000830186612d2f565b81810360208301526130178185612fac565b90506130266040830184612b28565b949350505050565b600080fd5b7f4e487b7100000000000000000000000000000000000000000000000000000000600052604160045260246000fd5b61306b82612b98565b810181811067ffffffffffffffff8211171561308a57613089613033565b5b80604052505050565b600061309d612a83565b90506130a98282613062565b919050565b600067ffffffffffffffff8211156130c9576130c8613033565b5b6130d282612b98565b9050602081019050919050565b82818337600083830152505050565b60006131016130fc846130ae565b613093565b90508281526020810184848401111561311d5761311c61302e565b5b6131288482856130df565b509392505050565b600082601f83011261314557613144612e10565b5b81356131558482602086016130ee565b91505092915050565b6000806000806080858703121561317857613177612a8d565b5b600061318687828801612cda565b945050602061319787828801612cda565b93505060406131a887828801612c25565b925050606085013567ffffffffffffffff8111156131c9576131c8612a92565b5b6131d587828801613130565b91505092959194509250565b600080604083850312156131f8576131f7612a8d565b5b600061320685828601612cda565b925050602061321785828601612cda565b9150509250929050565b7f4e487b7100000000000000000000000000000000000000000000000000000000600052602260045260246000fd5b6000600282049050600182168061326857607f821691505b60208210810361327b5761327a613221565b5b50919050565b7f4552433732313a20617070726f76616c20746f2063757272656e74206f776e6560008201527f7200000000000000000000000000000000000000000000000000000000000000602082015250565b60006132dd602183612b5d565b91506132e882613281565b604082019050919050565b6000602082019050818103600083015261330c816132d0565b9050919050565b7f4552433732313a20617070726f76652063616c6c6572206973206e6f7420746f60008201527f6b656e206f776e6572206f7220617070726f76656420666f7220616c6c000000602082015250565b600061336f603d83612b5d565b915061337a82613313565b604082019050919050565b6000602082019050818103600083015261339e81613362565b9050919050565b7f506c65617365206d696e7420796f757220536f756c204e465420666972737400600082015250565b60006133db601f83612b5d565b91506133e6826133a5565b602082019050919050565b6000602082019050818103600083015261340a816133ce565b9050919050565b7f4552433732313a2063616c6c6572206973206e6f7420746f6b656e206f776e6560008201527f72206f7220617070726f76656400000000000000000000000000000000000000602082015250565b600061346d602d83612b5d565b915061347882613411565b604082019050919050565b6000602082019050818103600083015261349c81613460565b9050919050565b7f4552433732313a20696e76616c696420746f6b656e2049440000000000000000600082015250565b60006134d9601883612b5d565b91506134e4826134a3565b602082019050919050565b60006020820190508181036000830152613508816134cc565b9050919050565b7f4552433732313a2061646472657373207a65726f206973206e6f74206120766160008201527f6c6964206f776e65720000000000000000000000000000000000000000000000602082015250565b600061356b602983612b5d565b91506135768261350f565b604082019050919050565b6000602082019050818103600083015261359a8161355e565b9050919050565b7f456d61696c2063616e6e6f7420626520656d7074790000000000000000000000600082015250565b60006135d7601583612b5d565b91506135e2826135a1565b602082019050919050565b60006020820190508181036000830152613606816135ca565b9050919050565b60008190508160005260206000209050919050565b60006020601f8301049050919050565b600082821b905092915050565b60006008830261366f7fffffffffffffffffffffffffffffffffffffffffffffffffffffffffffffffff82613632565b6136798683613632565b95508019841693508086168417925050509392505050565b6000819050919050565b60006136b66136b16136ac84612c04565b613691565b612c04565b9050919050565b6000819050919050565b6136d08361369b565b6136e46136dc826136bd565b84845461363f565b825550505050565b600090565b6136f96136ec565b6137048184846136c7565b505050565b5b818110156137285761371d6000826136f1565b60018101905061370a565b5050565b601f82111561376d5761373e8161360d565b61374784613622565b81016020851015613756578190505b61376a61376285613622565b830182613709565b50505b505050565b600082821c905092915050565b600061379060001984600802613772565b1980831691505092915050565b60006137a9838361377f565b9150826002028217905092915050565b6137c282612b52565b67ffffffffffffffff8111156137db576137da613033565b5b6137e58254613250565b6137f082828561372c565b600060209050601f8311600181146138235760008415613811578287015190505b61381b858261379d565b865550613883565b601f1984166138318661360d565b60005b8281101561385957848901518255600182019150602085019450602081019050613834565b868310156138765784890151613872601f89168261377f565b8355505b6001600288020188555050505b505050505050565b60006138978385612b5d565b93506138a48385846130df565b6138ad83612b98565b840190509392505050565b600060408201905081810360008301526138d381868861388b565b905081810360208301526138e881848661388b565b905095945050505050565b7f416c7265616479206d696e746564000000000000000000000000000000000000600082015250565b6000613929600e83612b5d565b9150613934826138f3565b602082019050919050565b600060208201905081810360008301526139588161391c565b9050919050565b7f496e73756666696369656e74206d696e74206665650000000000000000000000600082015250565b6000613995601583612b5d565b91506139a08261395f565b602082019050919050565b600060208201905081810360008301526139c481613988565b9050919050565b7f4e487b7100000000000000000000000000000000000000000000000000000000600052601160045260246000fd5b6000613a0582612c04565b91507fffffffffffffffffffffffffffffffffffffffffffffffffffffffffffffffff8203613a3757613a366139cb565b5b600182019050919050565b6000613a4d82612c04565b9150613a5883612c04565b9250828203905081811115613a7057613a6f6139cb565b5b92915050565b7f4f776e61626c653a206e6577206f776e657220697320746865207a65726f206160008201527f6464726573730000000000000000000000000000000000000000000000000000602082015250565b6000613ad2602683612b5d565b9150613add82613a76565b604082019050919050565b60006020820190508181036000830152613b0181613ac5565b9050919050565b7f4552433732313a207472616e736665722066726f6d20696e636f72726563742060008201527f6f776e6572000000000000000000000000000000000000000000000000000000602082015250565b6000613b64602583612b5d565b9150613b6f82613b08565b604082019050919050565b60006020820190508181036000830152613b9381613b57565b9050919050565b7f4552433732313a207472616e7366657220746f20746865207a65726f2061646460008201527f7265737300000000000000000000000000000000000000000000000000000000602082015250565b6000613bf6602483612b5d565b9150613c0182613b9a565b604082019050919050565b60006020820190508181036000830152613c2581613be9565b9050919050565b7f4f776e61626c653a2063616c6c6572206973206e6f7420746865206f776e6572600082015250565b6000613c62602083612b5d565b9150613c6d82613c2c565b602082019050919050565b60006020820190508181036000830152613c9181613c55565b9050919050565b7f4552433732313a20617070726f766520746f2063616c6c657200000000000000600082015250565b6000613cce601983612b5d565b9150613cd982613c98565b602082019050919050565b60006020820190508181036000830152613cfd81613cc1565b9050919050565b7f4552433732313a207472616e7366657220746f206e6f6e20455243373231526560008201527f63656976657220696d706c656d656e7465720000000000000000000000000000602082015250565b6000613d60603283612b5d565b9150613d6b82613d04565b604082019050919050565b60006020820190508181036000830152613d8f81613d53565b9050919050565b600081905092915050565b6000613dac82612b52565b613db68185613d96565b9350613dc6818560208601612b6e565b80840191505092915050565b6000613dde8285613da1565b9150613dea8284613da1565b91508190509392505050565b600081519050919050565b600082825260208201905092915050565b6000613e1d82613df6565b613e278185613e01565b9350613e37818560208601612b6e565b613e4081612b98565b840191505092915050565b6000608082019050613e606000830187612c99565b613e6d6020830186612c99565b613e7a6040830185612d2f565b8181036060830152613e8c8184613e12565b905095945050505050565b600081519050613ea681612ac3565b92915050565b600060208284031215613ec257613ec1612a8d565b5b6000613ed084828501613e97565b91505092915050565b7f4552433732313a206d696e7420746f20746865207a65726f2061646472657373600082015250565b6000613f0f602083612b5d565b9150613f1a82613ed9565b602082019050919050565b60006020820190508181036000830152613f3e81613f02565b9050919050565b7f4552433732313a20746f6b656e20616c7265616479206d696e74656400000000600082015250565b6000613f7b601c83612b5d565b9150613f8682613f45565b602082019050919050565b60006020820190508181036000830152613faa81613f6e565b9050919050565b7f4e487b7100000000000000000000000000000000000000000000000000000000600052601260045260246000fdfea26469706673582212205abd17890afff210af55dce108489ba04ea3f489ce0b4ca13ba9b6f64b63395f64736f6c63430008140033",
  "linkReferences": {},
  "deployedLinkReferences": {}
}